{
  "transactions": [
    {
      "hash": "0xe59ed426af512ea589830a5a58906386d14b1aa803baad33e29cab7195a7d5c8",
      "transactionType": "CREATE",
      "contractName": "CancelResolutionFacet",
      "contractAddress": "0xa7a0cd39a631d40969a19fa78a498f1612cac613",
      "function": null,
      "arguments": null,
      "transaction": {
        "from": "0xca9cdd6714033a4d08e4be479c1077e5b35f3a4b",
        "gas": "0x38c15",
        "value": "0x0",
        "input": "0x6080604052348015600e575f5ffd5b506102458061001c5f395ff3fe608060405234801561000f575f5ffd5b5060043610610029575f3560e01c806394c4e7ab1461002d575b5f5ffd5b61004061003b3660046101f8565b610042565b005b335f9081527f116821e65f2fac59f674fa922b2144621d9de38438b245db2665a0d1a5489ab0602052604090205460ff166100b35760405162461bcd60e51b815260206004820152600c60248201526b2737ba1032bc32b1baba37b960a11b60448201526064015b60405180910390fd5b7f4e0c96f479e24d93095f8646551c406d6efc80e6053655ef6a51e120d045d339547f4e0c96f479e24d93095f8646551c406d6efc80e6053655ef6a51e120d045d3379082106101455760405162461bcd60e51b815260206004820152601960248201527f5265736f6c7574696f6e20646f6573206e6f742065786973740000000000000060448201526064016100aa565b5f828152600380830160205260409091209081015460ff16156101aa5760405162461bcd60e51b815260206004820152601960248201527f5265736f6c7574696f6e20616c726561647920636c6f7365640000000000000060448201526064016100aa565b60038101805460ff191660011790556040517f490333a84e808f1f041849b501bcfbf5e04c36db6cad9407a94896af8de1a292906101eb9085815260200190565b60405180910390a1505050565b5f60208284031215610208575f5ffd5b503591905056fea26469706673582212208ec97fdc42c2287722f14cac366c284c430e77c083407ebefabbf3b747c18feb64736f6c634300081e0033",
        "nonce": "0x7c",
        "chainId": "0x14a34"
      },
      "additionalContracts": [],
      "isFixedGasLimit": false
    },
    {
      "hash": "0xb61993b5e7db95a3fdfe263d28fcd0f8265a2c46764dff8c16d8f3954de7f661",
      "transactionType": "CREATE",
      "contractName": "GovernanceRolesViewFacet",
      "contractAddress": "0x79dd8e9ac7e49b38252065acc728791677a4fa28",
      "function": null,
      "arguments": null,
      "transaction": {
        "from": "0xca9cdd6714033a4d08e4be479c1077e5b35f3a4b",
        "gas": "0x40431",
        "value": "0x0",
        "input": "0x6080604052348015600e575f5ffd5b506102b28061001c5f395ff3fe608060405234801561000f575f5ffd5b5060043610610060575f3560e01c806324d7806c1461006457806371942a011461008c57806374ec29a0146100d65780637d80c38e146100e9578063b9730cde14610132578063debfda3014610145575b5f5ffd5b61007761007236600461024f565b610158565b60405190151581526020015b60405180910390f35b61007761009a36600461024f565b6001600160a01b03165f9081527f4e0c96f479e24d93095f8646551c406d6efc80e6053655ef6a51e120d045d338602052604090205460ff1690565b6100776100e436600461024f565b610189565b7f4e0c96f479e24d93095f8646551c406d6efc80e6053655ef6a51e120d045d337546201000090046001600160a01b03166040516001600160a01b039091168152602001610083565b61007761014036600461024f565b6101b4565b61007761015336600461024f565b6101df565b5f6101837fa49807205ce4d355092ef5a8a18f56e8913cf4a201fbe287825b095693c2177583610206565b92915050565b5f6101837fb09aa5aeb3702cfd50b6b62bc4532604938f21248a27a1d5ca736082b6819cc183610206565b5f6101837f5bb0bf1fabd5e975fc7a4520766d9e86e0eb281f8c7c44fcd3dfe60a11e786ca83610206565b5f6101837fd8aa0f3194971a2a116679f7c2090f6939c8d4e01a2a8d7e41d55e5351469e63835b5f9182527f5d68513e40af1fc8211b2c3fef10905e771eaa0cdf361fb70c30d647cad84fd5602090815260408084206001600160a01b0393909316845291905290205460ff1690565b5f6020828403121561025f575f5ffd5b81356001600160a01b0381168114610275575f5ffd5b939250505056fea2646970667358221220e0c950e4b75636ae1dec945045200d6d4e054a3075ea18682136265c81079dc364736f6c634300081e0033",
        "nonce": "0x7d",
        "chainId": "0x14a34"
      },
      "additionalContracts": [],
      "isFixedGasLimit": false
    },
    {
      "hash": "0x8d87f78b0d114cc9dbd7f68b3e89f9adff4281671bf4ef350a46c462f2f9f8da",
      "transactionType": "CALL",
      "contractName": null,
      "contractAddress": "0x7a94444a1bcf6e66e7c5443419a0e59d6338a463",
      "function": "diamondCut((address,uint8,bytes4[])[],address,bytes)",
      "arguments": [
        "[(0xa7a0cD39A631D40969a19FA78A498F1612CAc613, 0, [0x94c4e7ab]), (0x79dd8E9Ac7E49b38252065aCc728791677A4fA28, 0, [0x24d7806c, 0xdebfda30, 0x74ec29a0, 0xb9730cde, 0x71942a01, 0x7d80c38e])]",
        "0x0000000000000000000000000000000000000000",
        "0x"
      ],
      "transaction": {
        "from": "0xca9cdd6714033a4d08e4be479c1077e5b35f3a4b",
        "to": "0x7a94444a1bcf6e66e7c5443419a0e59d6338a463",
        "gas": "0x80d07",
        "value": "0x0",
        "input": "0x1f931c1c0000000000000000000000000000000000000000000000000000000000000060000000000000000000000000000000000000000000000000000000000000000000000000000000000000000000000000000000000000000000000000000002a00000000000000000000000000000000000000000000000000000000000000002000000000000000000000000000000000000000000000000000000000000004000000000000000000000000000000000000000000000000000000000000000e0000000000000000000000000a7a0cd39a631d40969a19fa78a498f1612cac61300000000000000000000000000000000000000000000000000000000000000000000000000000000000000000000000000000000000000000000000000000060000000000000000000000000000000000000000000000000000000000000000194c4e7ab0000000000000000000000000000000000000000000000000000000000000000000000000000000079dd8e9ac7e49b38252065acc728791677a4fa2800000000000000000000000000000000000000000000000000000000000000000000000000000000000000000000000000000000000000000000000000000060000000000000000000000000000000000000000000000000000000000000000624d7806c00000000000000000000000000000000000000000000000000000000debfda300000000000000000000000000000000000000000000000000000000074ec29a000000000000000000000000000000000000000000000000000000000b9730cde0000000000000000000000000000000000000000000000000000000071942a01000000000000000000000000000000000000000000000000000000007d80c38e000000000000000000000000000000000000000000000000000000000000000000000000000000000000000000000000000000000000000000000000",
        "nonce": "0x7e",
        "chainId": "0x14a34"
      },
      "additionalContracts": [],
      "isFixedGasLimit": false
    }
  ],
  "receipts": [
    {
      "status": "0x1",
      "cumulativeGasUsed": "0xe2524",
      "logs": [],
      "logsBloom": "0x00000000000000000000000000000000000000000000000000000000000000000000000000000000000000000000000000000000000000000000000000000000000000000000000000000000000000000000000000000000000000000000000000000000000000000000000000000000000000000000000000000000000000000000000000000000000000000000000000000000000000000000000000000000000000000000000000000000000000000000000000000000000000000000000000000000000000000000000000000000000000000000000000000000000000000000000000000000000000000000000000000000000000000000000000000000",
      "type": "0x2",
      "transactionHash": "0xe59ed426af512ea589830a5a58906386d14b1aa803baad33e29cab7195a7d5c8",
      "transactionIndex": "0xd",
      "blockHash": "0x0000000000000000000000000000000000000000000000000000000000000000",
      "blockNumber": "0x24054f8",
      "gasUsed": "0x2ba87",
      "effectiveGasPrice": "0x2dc6c0",
      "blobGasUsed": "0xf340",
      "from": "0xca9cdd6714033a4d08e4be479c1077e5b35f3a4b",
      "to": null,
      "contractAddress": "0xa7a0cd39a631d40969a19fa78a498f1612cac613",
      "daFootprintGasScalar": "0x8b",
      "l1BaseFeeScalar": "0x44d",
      "l1BlobBaseFee": "0xe7a899d",
      "l1BlobBaseFeeScalar": "0xa118b",
      "l1Fee": "0x5448b51a8",
      "l1GasPrice": "0xdf302a32",
      "l1GasUsed": "0x1c07"
    },
    {
      "status": "0x1",
      "cumulativeGasUsed": "0x113c0f",
      "logs": [],
      "logsBloom": "0x00000000000000000000000000000000000000000000000000000000000000000000000000000000000000000000000000000000000000000000000000000000000000000000000000000000000000000000000000000000000000000000000000000000000000000000000000000000000000000000000000000000000000000000000000000000000000000000000000000000000000000000000000000000000000000000000000000000000000000000000000000000000000000000000000000000000000000000000000000000000000000000000000000000000000000000000000000000000000000000000000000000000000000000000000000000",
      "type": "0x2",
      "transactionHash": "0xb61993b5e7db95a3fdfe263d28fcd0f8265a2c46764dff8c16d8f3954de7f661",
      "transactionIndex": "0xe",
      "blockHash": "0x0000000000000000000000000000000000000000000000000000000000000000",
      "blockNumber": "0x24054f8",
      "gasUsed": "0x316eb",
      "effectiveGasPrice": "0x2dc6c0",
      "blobGasUsed": "0x12a17",
      "from": "0xca9cdd6714033a4d08e4be479c1077e5b35f3a4b",
      "to": null,
      "contractAddress": "0x79dd8e9ac7e49b38252065acc728791677a4fa28",
      "daFootprintGasScalar": "0x8b",
      "l1BaseFeeScalar": "0x44d",
      "l1BlobBaseFee": "0xe7a899d",
      "l1BlobBaseFeeScalar": "0xa118b",
      "l1Fee": "0x5448b51a8",
      "l1GasPrice": "0xdf302a32",
      "l1GasUsed": "0x225a"
    },
    {
      "status": "0x1",
      "cumulativeGasUsed": "0x171035",
      "logs": [],
      "logsBloom": "0x00000000000000000000000000000000000000000000000000000000000000000000000000000000000000000000000000000000000000000000000000000000000000000000000000000000000000000000000000000000000000000000000000000000000000000000000000000000000000000000000000000000000000000000000000000000000000000000000000000000000000000000000000000000000000000000000000000000000000000000000000000000000000000000000000000000000000000000000000000000000000000000000000000000000000000000000000000000000000000000000000000000000000000000000000000000",
      "type": "0x2",
      "transactionHash": "0x8d87f78b0d114cc9dbd7f68b3e89f9adff4281671bf4ef350a46c462f2f9f8da",
      "transactionIndex": "0xf",
      "blockHash": "0x0000000000000000000000000000000000000000000000000000000000000000",
      "blockNumber": "0x24054f8",
      "gasUsed": "0x5d426",
      "effectiveGasPrice": "0x2dc6c0",
      "blobGasUsed": "0x6956",
      "from": "0xca9cdd6714033a4d08e4be479c1077e5b35f3a4b",
      "to": "0x7a94444a1bcf6e66e7c5443419a0e59d6338a463",
      "contractAddress": null,
      "daFootprintGasScalar": "0x8b",
      "l1BaseFeeScalar": "0x44d",
      "l1BlobBaseFee": "0xe7a899d",
      "l1BlobBaseFeeScalar": "0xa118b",
      "l1Fee": "0x5448b51a8",
      "l1GasPrice": "0xdf302a32",
      "l1GasUsed": "0xc2f"
    }
  ],
  "libraries": [],
  "pending": [],
  "returns": {},
  "timestamp": 1771309263099,
  "chain": 84532,
  "commit": "50138f67c"
}