{
  "transactions": [
    {
      "hash": "0x0d03c2e08d237cb6baac5f34b812f5fa05d238c133e390666add84c9e313a760",
      "transactionType": "CREATE",
      "contractName": "CancelResolutionFacet",
      "contractAddress": "0x9ae271277b833e78c6d43610268a953527406804",
      "function": null,
      "arguments": null,
      "transaction": {
        "from": "0xca9cdd6714033a4d08e4be479c1077e5b35f3a4b",
        "gas": "0x32a28",
        "value": "0x0",
        "input": "0x6080604052348015600e575f5ffd5b506101eb8061001c5f395ff3fe608060405234801561000f575f5ffd5b5060043610610029575f3560e01c806394c4e7ab1461002d575b5f5ffd5b61004061003b36600461018a565b610042565b005b335f9081527f5924f183b88eaa6773a57cdc9fdc193e01af67a09a2deef0246944f47c061e22602052604090205460ff166100b95760405162461bcd60e51b81526020600482015260126024820152712737ba1030b9b9b2b6b1363c9030b236b4b760711b60448201526064015b60405180910390fd5b5f8181527f4e0c96f479e24d93095f8646551c406d6efc80e6053655ef6a51e120d045d33e6020526040812060048101547f4e0c96f479e24d93095f8646551c406d6efc80e6053655ef6a51e120d045d337929060ff166006811115610121576101216101a1565b146101785760405162461bcd60e51b815260206004820152602160248201527f43616e6e6f742063616e63656c20616674657220766f74696e672073746172746044820152607360f81b60648201526084016100b0565b600401805460ff191660061790555050565b5f6020828403121561019a575f5ffd5b5035919050565b634e487b7160e01b5f52602160045260245ffdfea2646970667358221220afee66b05b562c959b59de05a9ecbf83d0ea534a553d40a6fd0e18a6025063eb64736f6c634300081e0033",
        "nonce": "0x7f",
        "chainId": "0x14a34"
      },
      "additionalContracts": [],
      "isFixedGasLimit": false
    },
    {
      "hash": "0xb717f9cb37399b88c48e159e14c75c048dee3bb2f19fcb0c4ff4d993efca7b42",
      "transactionType": "CREATE",
      "contractName": "GovernanceRolesViewFacet",
      "contractAddress": "0x519e988fba12fa0ab0b76f49a27aa99dd17ff162",
      "function": null,
      "arguments": null,
      "transaction": {
        "from": "0xca9cdd6714033a4d08e4be479c1077e5b35f3a4b",
        "gas": "0x3e995",
        "value": "0x0",
        "input": "0x6080604052348015600e575f5ffd5b5061029a8061001c5f395ff3fe608060405234801561000f575f5ffd5b5060043610610060575f3560e01c806334495ad0146100645780633510f6801461008b57806371942a011461009e57806374ec29a0146100b15780639cacb261146100c4578063a230c524146100d7575b5f5ffd5b610077610072366004610237565b6100ea565b604051901515815260200160405180910390f35b610077610099366004610237565b61011b565b6100776100ac366004610237565b610146565b6100776100bf366004610237565b610171565b6100776100d2366004610237565b61019c565b6100776100e5366004610237565b6101c7565b5f6101157f6f3f1caf5b50e69449afa8d7303b942051890b13d2d718a7dd6e80b36902e21e836101ee565b92915050565b5f6101157fed8c9af385733531b10cebc46546853ee206b29a925dd692bd168a0bcf9189bb836101ee565b5f6101157fcec76911b0fe4caf5265d64ceb6a61556e5caf5634a24948be9128bc66694133836101ee565b5f6101157fb09aa5aeb3702cfd50b6b62bc4532604938f21248a27a1d5ca736082b6819cc1836101ee565b5f6101157fd83c1a50dc0a09945cd355882e9b92d840723815900d90b54a78888e14a1acee836101ee565b5f6101157f829b824e2329e205435d941c9f13baf578548505283d29261236d8e6596d4636835b5f9182527f5d68513e40af1fc8211b2c3fef10905e771eaa0cdf361fb70c30d647cad84fd5602090815260408084206001600160a01b0393909316845291905290205460ff1690565b5f60208284031215610247575f5ffd5b81356001600160a01b038116811461025d575f5ffd5b939250505056fea26469706673582212209d67852ede2783bf94998d4d45b18e09b80b0d1e35937177cca15c94cef46c4764736f6c634300081e0033",
        "nonce": "0x80",
        "chainId": "0x14a34"
      },
      "additionalContracts": [],
      "isFixedGasLimit": false
    },
    {
      "hash": "0xf12d0faf5b09ed6ac9236ead37e3884eba2f1dfb6cca07a9fa1bea8382488203",
      "transactionType": "CALL",
      "contractName": null,
      "contractAddress": "0x7a94444a1bcf6e66e7c5443419a0e59d6338a463",
      "function": "diamondCut((address,uint8,bytes4[])[],address,bytes)",
      "arguments": [
        "[(0x9ae271277b833E78C6d43610268a953527406804, 1, [0x94c4e7ab]), (0x519E988FBa12fa0AB0b76F49a27Aa99dd17ff162, 0, [0x9cacb261]), (0x519E988FBa12fa0AB0b76F49a27Aa99dd17ff162, 1, [0x71942a01]), (0x519E988FBa12fa0AB0b76F49a27Aa99dd17ff162, 0, [0x34495ad0]), (0x519E988FBa12fa0AB0b76F49a27Aa99dd17ff162, 0, [0x3510f680]), (0x519E988FBa12fa0AB0b76F49a27Aa99dd17ff162, 1, [0x74ec29a0]), (0x519E988FBa12fa0AB0b76F49a27Aa99dd17ff162, 0, [0xa230c524])]",
        "0x0000000000000000000000000000000000000000",
        "0x"
      ],
      "transaction": {
        "from": "0xca9cdd6714033a4d08e4be479c1077e5b35f3a4b",
        "to": "0x7a94444a1bcf6e66e7c5443419a0e59d6338a463",
        "gas": "0x79d44",
        "value": "0x0",
        "input": "0x1f931c1c0000000000000000000000000000000000000000000000000000000000000060000000000000000000000000000000000000000000000000000000000000000000000000000000000000000000000000000000000000000000000000000005c0000000000000000000000000000000000000000000000000000000000000000700000000000000000000000000000000000000000000000000000000000000e00000000000000000000000000000000000000000000000000000000000000180000000000000000000000000000000000000000000000000000000000000022000000000000000000000000000000000000000000000000000000000000002c00000000000000000000000000000000000000000000000000000000000000360000000000000000000000000000000000000000000000000000000000000040000000000000000000000000000000000000000000000000000000000000004a00000000000000000000000009ae271277b833e78c6d43610268a95352740680400000000000000000000000000000000000000000000000000000000000000010000000000000000000000000000000000000000000000000000000000000060000000000000000000000000000000000000000000000000000000000000000194c4e7ab00000000000000000000000000000000000000000000000000000000000000000000000000000000519e988fba12fa0ab0b76f49a27aa99dd17ff1620000000000000000000000000000000000000000000000000000000000000000000000000000000000000000000000000000000000000000000000000000006000000000000000000000000000000000000000000000000000000000000000019cacb26100000000000000000000000000000000000000000000000000000000000000000000000000000000519e988fba12fa0ab0b76f49a27aa99dd17ff16200000000000000000000000000000000000000000000000000000000000000010000000000000000000000000000000000000000000000000000000000000060000000000000000000000000000000000000000000000000000000000000000171942a0100000000000000000000000000000000000000000000000000000000000000000000000000000000519e988fba12fa0ab0b76f49a27aa99dd17ff16200000000000000000000000000000000000000000000000000000000000000000000000000000000000000000000000000000000000000000000000000000060000000000000000000000000000000000000000000000000000000000000000134495ad000000000000000000000000000000000000000000000000000000000000000000000000000000000519e988fba12fa0ab0b76f49a27aa99dd17ff1620000000000000000000000000000000000000000000000000000000000000000000000000000000000000000000000000000000000000000000000000000006000000000000000000000000000000000000000000000000000000000000000013510f68000000000000000000000000000000000000000000000000000000000000000000000000000000000519e988fba12fa0ab0b76f49a27aa99dd17ff16200000000000000000000000000000000000000000000000000000000000000010000000000000000000000000000000000000000000000000000000000000060000000000000000000000000000000000000000000000000000000000000000174ec29a000000000000000000000000000000000000000000000000000000000000000000000000000000000519e988fba12fa0ab0b76f49a27aa99dd17ff162000000000000000000000000000000000000000000000000000000000000000000000000000000000000000000000000000000000000000000000000000000600000000000000000000000000000000000000000000000000000000000000001a230c524000000000000000000000000000000000000000000000000000000000000000000000000000000000000000000000000000000000000000000000000",
        "nonce": "0x81",
        "chainId": "0x14a34"
      },
      "additionalContracts": [],
      "isFixedGasLimit": false
    }
  ],
  "receipts": [
    {
      "status": "0x1",
      "cumulativeGasUsed": "0x60cd1",
      "logs": [],
      "logsBloom": "0x00000000000000000000000000000000000000000000000000000000000000000000000000000000000000000000000000000000000000000000000000000000000000000000000000000000000000000000000000000000000000000000000000000000000000000000000000000000000000000000000000000000000000000000000000000000000000000000000000000000000000000000000000000000000000000000000000000000000000000000000000000000000000000000000000000000000000000000000000000000000000000000000000000000000000000000000000000000000000000000000000000000000000000000000000000000",
      "type": "0x2",
      "transactionHash": "0x0d03c2e08d237cb6baac5f34b812f5fa05d238c133e390666add84c9e313a760",
      "transactionIndex": "0x5",
      "blockHash": "0x0000000000000000000000000000000000000000000000000000000000000000",
      "blockNumber": "0x248cb59",
      "gasUsed": "0x26f33",
      "effectiveGasPrice": "0x5b8d80",
      "blobGasUsed": "0xe497",
      "from": "0xca9cdd6714033a4d08e4be479c1077e5b35f3a4b",
      "to": null,
      "contractAddress": "0x9ae271277b833e78c6d43610268a953527406804",
      "daFootprintGasScalar": "0x8b",
      "l1BaseFeeScalar": "0x44d",
      "l1BlobBaseFee": "0x1",
      "l1BlobBaseFeeScalar": "0xa118b",
      "l1Fee": "0x53",
      "l1GasPrice": "0xa",
      "l1GasUsed": "0x1a5a"
    },
    {
      "status": "0x1",
      "cumulativeGasUsed": "0x90f44",
      "logs": [],
      "logsBloom": "0x00000000000000000000000000000000000000000000000000000000000000000000000000000000000000000000000000000000000000000000000000000000000000000000000000000000000000000000000000000000000000000000000000000000000000000000000000000000000000000000000000000000000000000000000000000000000000000000000000000000000000000000000000000000000000000000000000000000000000000000000000000000000000000000000000000000000000000000000000000000000000000000000000000000000000000000000000000000000000000000000000000000000000000000000000000000",
      "type": "0x2",
      "transactionHash": "0xb717f9cb37399b88c48e159e14c75c048dee3bb2f19fcb0c4ff4d993efca7b42",
      "transactionIndex": "0x6",
      "blockHash": "0x0000000000000000000000000000000000000000000000000000000000000000",
      "blockNumber": "0x248cb59",
      "gasUsed": "0x30273",
      "effectiveGasPrice": "0x5b8d80",
      "blobGasUsed": "0x12901",
      "from": "0xca9cdd6714033a4d08e4be479c1077e5b35f3a4b",
      "to": null,
      "contractAddress": "0x519e988fba12fa0ab0b76f49a27aa99dd17ff162",
      "daFootprintGasScalar": "0x8b",
      "l1BaseFeeScalar": "0x44d",
      "l1BlobBaseFee": "0x1",
      "l1BlobBaseFeeScalar": "0xa118b",
      "l1Fee": "0x53",
      "l1GasPrice": "0xa",
      "l1GasUsed": "0x223f"
    },
    {
      "status": "0x1",
      "cumulativeGasUsed": "0xe9281",
      "logs": [],
      "logsBloom": "0x00000000000000000000000000000000000000000000000000000000000000000000000000000000000000000000000000000000000000000000000000000000000000000000000000000000000000000000000000000000000000000000000000000000000000000000000000000000000000000000000000000000000000000000000000000000000000000000000000000000000000000000000000000000000000000000000000000000000000000000000000000000000000000000000000000000000000000000000000000000000000000000000000000000000000000000000000000000000000000000000000000000000000000000000000000000",
      "type": "0x2",
      "transactionHash": "0xf12d0faf5b09ed6ac9236ead37e3884eba2f1dfb6cca07a9fa1bea8382488203",
      "transactionIndex": "0x7",
      "blockHash": "0x0000000000000000000000000000000000000000000000000000000000000000",
      "blockNumber": "0x248cb59",
      "gasUsed": "0x5833d",
      "effectiveGasPrice": "0x5b8d80",
      "blobGasUsed": "0x8c16",
      "from": "0xca9cdd6714033a4d08e4be479c1077e5b35f3a4b",
      "to": "0x7a94444a1bcf6e66e7c5443419a0e59d6338a463",
      "contractAddress": null,
      "daFootprintGasScalar": "0x8b",
      "l1BaseFeeScalar": "0x44d",
      "l1BlobBaseFee": "0x1",
      "l1BlobBaseFeeScalar": "0xa118b",
      "l1Fee": "0x53",
      "l1GasPrice": "0xa",
      "l1GasUsed": "0x1028"
    }
  ],
  "libraries": [],
  "pending": [],
  "returns": {},
  "timestamp": 1772418485906,
  "chain": 84532,
  "commit": "50138f67c"
}