{
  "transactions": [
    {
      "hash": "0x13fd8600212aa063b12201288e4551e930135a72da0765dddea8408e0a6eb655",
      "transactionType": "CREATE",
      "contractName": "CorporateGovernanceViewFacet",
      "contractAddress": "0x47bf148141e6b92d4e28810a627179c3c50b1f83",
      "function": null,
      "arguments": null,
      "transaction": {
        "from": "0xca9cdd6714033a4d08e4be479c1077e5b35f3a4b",
        "gas": "0x3949d",
        "value": "0x0",
        "input": "0x6080604052348015600e575f5ffd5b5061024c8061001c5f395ff3fe608060405234801561000f575f5ffd5b5060043610610034575f3560e01c80639b11859d14610038578063d565a5331461006d575b5f5ffd5b7f4e0c96f479e24d93095f8646551c406d6efc80e6053655ef6a51e120d045d339546040519081526020015b60405180910390f35b61008061007b36600461017b565b610090565b6040516100649493929190610192565b5f8181527f4e0c96f479e24d93095f8646551c406d6efc80e6053655ef6a51e120d045d33a60205260408120600181015460028201546003830154835460609594859485949193849391929160ff9091169084906100ed906101de565b80601f0160208091040260200160405190810160405280929190818152602001828054610119906101de565b80156101645780601f1061013b57610100808354040283529160200191610164565b820191905f5260205f20905b81548152906001019060200180831161014757829003601f168201915b505050505093509450945094509450509193509193565b5f6020828403121561018b575f5ffd5b5035919050565b608081525f8551806080840152806020880160a085015e5f60a0828501015260a0601f19601f830116840101915050846020830152836040830152821515606083015295945050505050565b600181811c908216806101f257607f821691505b60208210810361021057634e487b7160e01b5f52602260045260245ffd5b5091905056fea2646970667358221220be7fad802a8d03758a10cc408706d4057572db7cc4d9389dde6684902528af7a64736f6c634300081e0033",
        "nonce": "0x78",
        "chainId": "0x14a34"
      },
      "additionalContracts": [],
      "isFixedGasLimit": false
    },
    {
      "hash": "0xd9c3543473ebb257186ac970383f55485430e6603c901a8de275eb1b52305a11",
      "transactionType": "CALL",
      "contractName": null,
      "contractAddress": "0xd4a7afd1f031f2fc11b9651d784f197de5b25607",
      "function": "diamondCut((address,uint8,bytes4[])[],address,bytes)",
      "arguments": [
        "[(0x47Bf148141E6B92d4E28810A627179c3c50b1f83, 0, [0x9b11859d, 0xd565a533])]",
        "0x0000000000000000000000000000000000000000",
        "0x"
      ],
      "transaction": {
        "from": "0xca9cdd6714033a4d08e4be479c1077e5b35f3a4b",
        "to": "0xd4a7afd1f031f2fc11b9651d784f197de5b25607",
        "gas": "0x3a5a3",
        "value": "0x0",
        "input": "0x1f931c1c0000000000000000000000000000000000000000000000000000000000000060000000000000000000000000000000000000000000000000000000000000000000000000000000000000000000000000000000000000000000000000000001600000000000000000000000000000000000000000000000000000000000000001000000000000000000000000000000000000000000000000000000000000002000000000000000000000000047bf148141e6b92d4e28810a627179c3c50b1f830000000000000000000000000000000000000000000000000000000000000000000000000000000000000000000000000000000000000000000000000000006000000000000000000000000000000000000000000000000000000000000000029b11859d00000000000000000000000000000000000000000000000000000000d565a533000000000000000000000000000000000000000000000000000000000000000000000000000000000000000000000000000000000000000000000000",
        "nonce": "0x79",
        "chainId": "0x14a34"
      },
      "additionalContracts": [],
      "isFixedGasLimit": false
    }
  ],
  "receipts": [
    {
      "status": "0x1",
      "cumulativeGasUsed": "0x38c03c",
      "logs": [],
      "logsBloom": "0x00000000000000000000000000000000000000000000000000000000000000000000000000000000000000000000000000000000000000000000000000000000000000000000000000000000000000000000000000000000000000000000000000000000000000000000000000000000000000000000000000000000000000000000000000000000000000000000000000000000000000000000000000000000000000000000000000000000000000000000000000000000000000000000000000000000000000000000000000000000000000000000000000000000000000000000000000000000000000000000000000000000000000000000000000000000",
      "type": "0x2",
      "transactionHash": "0x13fd8600212aa063b12201288e4551e930135a72da0765dddea8408e0a6eb655",
      "transactionIndex": "0x5",
      "blockHash": "0x0000000000000000000000000000000000000000000000000000000000000000",
      "blockNumber": "0x2404d13",
      "gasUsed": "0x2c117",
      "effectiveGasPrice": "0x2dc6c0",
      "blobGasUsed": "0x11349",
      "from": "0xca9cdd6714033a4d08e4be479c1077e5b35f3a4b",
      "to": null,
      "contractAddress": "0x47bf148141e6b92d4e28810a627179c3c50b1f83",
      "daFootprintGasScalar": "0x8b",
      "l1BaseFeeScalar": "0x44d",
      "l1BlobBaseFee": "0xe285522",
      "l1BlobBaseFeeScalar": "0xa118b",
      "l1Fee": "0x1b93f833e4",
      "l1GasPrice": "0x102dfaa42",
      "l1GasUsed": "0x1fbd"
    },
    {
      "status": "0x1",
      "cumulativeGasUsed": "0x3b642c",
      "logs": [],
      "logsBloom": "0x00000000000000000000000000000000000000000000000000000000000000000000000000000000000000000000000000000000000000000000000000000000000000000000000000000000000000000000000000000000000000000000000000000000000000000000000000000000000000000000000000000000000000000000000000000000000000000000000000000000000000000000000000000000000000000000000000000000000000000000000000000000000000000000000000000000000000000000000000000000000000000000000000000000000000000000000000000000000000000000000000000000000000000000000000000000",
      "type": "0x2",
      "transactionHash": "0xd9c3543473ebb257186ac970383f55485430e6603c901a8de275eb1b52305a11",
      "transactionIndex": "0x6",
      "blockHash": "0x1e9386dee2ddb6d0e3d3d2b0f6fdcfcd50e1a86f80780f892ffb02f715e77f72",
      "blockNumber": "0x2404d13",
      "gasUsed": "0x2a3f0",
      "effectiveGasPrice": "0x2dc6c0",
      "blobGasUsed": "0x4354",
      "from": "0xca9cdd6714033a4d08e4be479c1077e5b35f3a4b",
      "to": "0xd4a7afd1f031f2fc11b9651d784f197de5b25607",
      "contractAddress": null,
      "daFootprintGasScalar": "0x8b",
      "l1BaseFeeScalar": "0x44d",
      "l1BlobBaseFee": "0xe285522",
      "l1BlobBaseFeeScalar": "0xa118b",
      "l1Fee": "0x6c5cdb30a",
      "l1GasPrice": "0x102dfaa42",
      "l1GasUsed": "0x7cb"
    }
  ],
  "libraries": [],
  "pending": [],
  "returns": {},
  "timestamp": 1771305222089,
  "chain": 84532,
  "commit": "50138f67c"
}