{
  "transactions": [
    {
      "hash": "0x399f4d60d54247945fc10c0de36a1a0af16a15b55b490c20547299e58bd9a1e8",
      "transactionType": "CREATE",
      "contractName": "TreasuryFacet",
      "contractAddress": "0x81d4b615e81b3aea8c9d68556c6f02c7f9cfae50",
      "function": null,
      "arguments": null,
      "transaction": {
        "from": "0xca9cdd6714033a4d08e4be479c1077e5b35f3a4b",
        "gas": "0x41f0d",
        "value": "0x0",
        "input": "0x608080604052346015576102ca908161001a8239f35b5f80fdfe6080806040526004361015610012575f80fd5b5f3560e01c908163313dab20146101d6575063c49bfdca14610032575f80fd5b34610124576040366003190112610124576004356001600160a01b03811690819003610124576024353033036101a257811561016e57801561013b576040519163a9059cbb60e01b8352600483015260248201526020816044815f73e15a1c28c4185f9d98c1d2e17c2e8497bfefa23c5af1908115610130575f916100f1575b50156100ba57005b60405162461bcd60e51b815260206004820152600f60248201526e1514905394d1915497d19052531151608a1b6044820152606490fd5b90506020813d602011610128575b8161010c6020938361025e565b8101031261012457518015158103610124575f6100b2565b5f80fd5b3d91506100ff565b6040513d5f823e3d90fd5b60405162461bcd60e51b815260206004820152600b60248201526a16915493d7d05353d5539560aa1b6044820152606490fd5b60405162461bcd60e51b815260206004820152600c60248201526b5a45524f5f4144445245535360a01b6044820152606490fd5b60405162461bcd60e51b815260206004820152600c60248201526b13d3931657d112505353d39160a21b6044820152606490fd5b34610124575f366003190112610124576370a0823160e01b815230600482015260208160248173e15a1c28c4185f9d98c1d2e17c2e8497bfefa23c5afa8015610130575f9061022b575b602090604051908152f35b506020813d602011610256575b816102456020938361025e565b810103126101245760209051610220565b3d9150610238565b90601f8019910116810190811067ffffffffffffffff82111761028057604052565b634e487b7160e01b5f52604160045260245ffdfea2646970667358221220d20c6e346f0162f159517bd4bfb928f1b563fdd3c63e728012e1647d9ea6c67e64736f6c634300081e0033",
        "nonce": "0x108",
        "chainId": "0x14a34"
      },
      "additionalContracts": [],
      "isFixedGasLimit": false
    },
    {
      "hash": "0x3896587207f021862060bc930e9596c64633cc1a01603ae7eeffb80bdb904b1c",
      "transactionType": "CALL",
      "contractName": null,
      "contractAddress": "0x23433c04d1ec546e365d966eaed054696060c403",
      "function": "diamondCut((address,uint8,bytes4[])[],address,bytes)",
      "arguments": [
        "[(0x81D4b615e81B3aeA8C9d68556C6f02C7F9cFAE50, 1, [0xc49bfdca, 0x313dab20])]",
        "0x0000000000000000000000000000000000000000",
        "0x"
      ],
      "transaction": {
        "from": "0xca9cdd6714033a4d08e4be479c1077e5b35f3a4b",
        "to": "0x23433c04d1ec546e365d966eaed054696060c403",
        "gas": "0x2d0f8",
        "value": "0x0",
        "input": "0x1f931c1c0000000000000000000000000000000000000000000000000000000000000060000000000000000000000000000000000000000000000000000000000000000000000000000000000000000000000000000000000000000000000000000001600000000000000000000000000000000000000000000000000000000000000001000000000000000000000000000000000000000000000000000000000000002000000000000000000000000081d4b615e81b3aea8c9d68556c6f02c7f9cfae50000000000000000000000000000000000000000000000000000000000000000100000000000000000000000000000000000000000000000000000000000000600000000000000000000000000000000000000000000000000000000000000002c49bfdca00000000000000000000000000000000000000000000000000000000313dab20000000000000000000000000000000000000000000000000000000000000000000000000000000000000000000000000000000000000000000000000",
        "nonce": "0x109",
        "chainId": "0x14a34"
      },
      "additionalContracts": [],
      "isFixedGasLimit": false
    }
  ],
  "receipts": [
    {
      "status": "0x1",
      "cumulativeGasUsed": "0x2ae858",
      "logs": [],
      "logsBloom": "0x00000000000000000000000000000000000000000000000000000000000000000000000000000000000000000000000000000000000000000000000000000000000000000000000000000000000000000000000000000000000000000000000000000000000000000000000000000000000000000000000000000000000000000000000000000000000000000000000000000000000000000000000000000000000000000000000000000000000000000000000000000000000000000000000000000000000000000000000000000000000000000000000000000000000000000000000000000000000000000000000000000000000000000000000000000000",
      "type": "0x2",
      "transactionHash": "0x399f4d60d54247945fc10c0de36a1a0af16a15b55b490c20547299e58bd9a1e8",
      "transactionIndex": "0x14",
      "blockHash": "0x0000000000000000000000000000000000000000000000000000000000000000",
      "blockNumber": "0x258053d",
      "gasUsed": "0x32b94",
      "effectiveGasPrice": "0x5b8d80",
      "blobGasUsed": "0x11e25",
      "from": "0xca9cdd6714033a4d08e4be479c1077e5b35f3a4b",
      "to": null,
      "contractAddress": "0x81d4b615e81b3aea8c9d68556c6f02c7f9cfae50",
      "daFootprintGasScalar": "0x8b",
      "l1BaseFeeScalar": "0x44d",
      "l1BlobBaseFee": "0x1",
      "l1BlobBaseFeeScalar": "0xa118b",
      "l1Fee": "0x5e",
      "l1GasPrice": "0x10",
      "l1GasUsed": "0x20f1"
    },
    {
      "status": "0x1",
      "cumulativeGasUsed": "0x2cd551",
      "logs": [],
      "logsBloom": "0x00000000000000000000000000000000000000000000000000000000000000000000000000000000000000000000000000000000000000000000000000000000000000000000000000000000000000000000000000000000000000000000000000000000000000000000000000000000000000000000000000000000000000000000000000000000000000000000000000000000000000000000000000000000000000000000000000000000000000000000000000000000000000000000000000000000000000000000000000000000000000000000000000000000000000000000000000000000000000000000000000000000000000000000000000000000",
      "type": "0x2",
      "transactionHash": "0x3896587207f021862060bc930e9596c64633cc1a01603ae7eeffb80bdb904b1c",
      "transactionIndex": "0x15",
      "blockHash": "0x0000000000000000000000000000000000000000000000000000000000000000",
      "blockNumber": "0x258053d",
      "gasUsed": "0x1ecf9",
      "effectiveGasPrice": "0x5b8d80",
      "blobGasUsed": "0x4696",
      "from": "0xca9cdd6714033a4d08e4be479c1077e5b35f3a4b",
      "to": "0x23433c04d1ec546e365d966eaed054696060c403",
      "contractAddress": null,
      "daFootprintGasScalar": "0x8b",
      "l1BaseFeeScalar": "0x44d",
      "l1BlobBaseFee": "0x1",
      "l1BlobBaseFeeScalar": "0xa118b",
      "l1Fee": "0x5e",
      "l1GasPrice": "0x10",
      "l1GasUsed": "0x829"
    }
  ],
  "libraries": [],
  "pending": [],
  "returns": {},
  "timestamp": 1774414171172,
  "chain": 84532,
  "commit": "50138f67c"
}