{
  "transactions": [
    {
      "hash": "0x8d771e8c659c5f32e7fd7dda7ad846f29ff15774ff28399ea20d499c8f321ea8",
      "transactionType": "CREATE",
      "contractName": "TreasuryFacet",
      "contractAddress": "0x20696bf1c1181d6c170029bebc7d87f7eb93e20e",
      "function": null,
      "arguments": null,
      "transaction": {
        "from": "0xca9cdd6714033a4d08e4be479c1077e5b35f3a4b",
        "gas": "0x3e11e",
        "value": "0x0",
        "input": "0x60808060405234601557610292908161001a8239f35b5f80fdfe6080806040526004361015610012575f80fd5b5f3560e01c908163313dab201461019e575063a27bf96714610032575f80fd5b34610142576040366003190112610142576004356001600160a01b03811690819003610142577fbe6e457ba1332c70c88a45cbf0d772df4605a973a377772addb08ba1b69e8cec546001600160a01b03163303610159576040519063a9059cbb60e01b8252600482015260243560248201526020816044815f73e15a1c28c4185f9d98c1d2e17c2e8497bfefa23c5af190811561014e575f9161010f575b50156100d857005b60405162461bcd60e51b815260206004820152600f60248201526e151c985b9cd9995c8819985a5b1959608a1b6044820152606490fd5b90506020813d602011610146575b8161012a60209383610226565b8101031261014257518015158103610142575f6100d0565b5f80fd5b3d915061011d565b6040513d5f823e3d90fd5b60405162461bcd60e51b815260206004820152601860248201527f54726561737572793a204e4f545f474f5645524e414e434500000000000000006044820152606490fd5b34610142575f366003190112610142576370a0823160e01b815230600482015260208160248173e15a1c28c4185f9d98c1d2e17c2e8497bfefa23c5afa801561014e575f906101f3575b602090604051908152f35b506020813d60201161021e575b8161020d60209383610226565b8101031261014257602090516101e8565b3d9150610200565b90601f8019910116810190811067ffffffffffffffff82111761024857604052565b634e487b7160e01b5f52604160045260245ffdfea26469706673582212201eb603aad96e99099be1ec08652dcc57f0deeea9e5ff973c0543eac21313e30b64736f6c634300081e0033",
        "nonce": "0x10c",
        "chainId": "0x14a34"
      },
      "additionalContracts": [],
      "isFixedGasLimit": false
    },
    {
      "hash": "0xce514dedccede4bf4c13a5806ce8af5fa4b1a18df48eac50baead4fb47aa6752",
      "transactionType": "CALL",
      "contractName": null,
      "contractAddress": "0x23433c04d1ec546e365d966eaed054696060c403",
      "function": "diamondCut((address,uint8,bytes4[])[],address,bytes)",
      "arguments": [
        "[(0x20696BF1c1181d6C170029BEbc7d87f7eb93e20e, 1, [0x313dab20]), (0x20696BF1c1181d6C170029BEbc7d87f7eb93e20e, 0, [0xa27bf967]), (0x0000000000000000000000000000000000000000, 2, [0xc49bfdca])]",
        "0x0000000000000000000000000000000000000000",
        "0x"
      ],
      "transaction": {
        "from": "0xca9cdd6714033a4d08e4be479c1077e5b35f3a4b",
        "to": "0x23433c04d1ec546e365d966eaed054696060c403",
        "gas": "0x33b2e",
        "value": "0x0",
        "input": "0x1f931c1c0000000000000000000000000000000000000000000000000000000000000060000000000000000000000000000000000000000000000000000000000000000000000000000000000000000000000000000000000000000000000000000002c000000000000000000000000000000000000000000000000000000000000000030000000000000000000000000000000000000000000000000000000000000060000000000000000000000000000000000000000000000000000000000000010000000000000000000000000000000000000000000000000000000000000001a000000000000000000000000020696bf1c1181d6c170029bebc7d87f7eb93e20e000000000000000000000000000000000000000000000000000000000000000100000000000000000000000000000000000000000000000000000000000000600000000000000000000000000000000000000000000000000000000000000001313dab200000000000000000000000000000000000000000000000000000000000000000000000000000000020696bf1c1181d6c170029bebc7d87f7eb93e20e000000000000000000000000000000000000000000000000000000000000000000000000000000000000000000000000000000000000000000000000000000600000000000000000000000000000000000000000000000000000000000000001a27bf967000000000000000000000000000000000000000000000000000000000000000000000000000000000000000000000000000000000000000000000000000000000000000000000000000000000000000000000000000000000000000200000000000000000000000000000000000000000000000000000000000000600000000000000000000000000000000000000000000000000000000000000001c49bfdca000000000000000000000000000000000000000000000000000000000000000000000000000000000000000000000000000000000000000000000000",
        "nonce": "0x10d",
        "chainId": "0x14a34"
      },
      "additionalContracts": [],
      "isFixedGasLimit": false
    }
  ],
  "receipts": [
    {
      "status": "0x1",
      "cumulativeGasUsed": "0x947b0c",
      "logs": [],
      "logsBloom": "0x00000000000000000000000000000000000000000000000000000000000000000000000000000000000000000000000000000000000000000000000000000000000000000000000000000000000000000000000000000000000000000000000000000000000000000000000000000000000000000000000000000000000000000000000000000000000000000000000000000000000000000000000000000000000000000000000000000000000000000000000000000000000000000000000000000000000000000000000000000000000000000000000000000000000000000000000000000000000000000000000000000000000000000000000000000000",
      "type": "0x2",
      "transactionHash": "0x8d771e8c659c5f32e7fd7dda7ad846f29ff15774ff28399ea20d499c8f321ea8",
      "transactionIndex": "0x1b",
      "blockHash": "0xec9eaa1ec38a2302c0a4e23259979624f3ec83c484cba152049d37c5dde28a65",
      "blockNumber": "0x258131b",
      "gasUsed": "0x2fbf0",
      "effectiveGasPrice": "0x5b8d80",
      "blobGasUsed": "0x11ae3",
      "from": "0xca9cdd6714033a4d08e4be479c1077e5b35f3a4b",
      "to": null,
      "contractAddress": "0x20696bf1c1181d6c170029bebc7d87f7eb93e20e",
      "daFootprintGasScalar": "0x8b",
      "l1BaseFeeScalar": "0x44d",
      "l1BlobBaseFee": "0x2",
      "l1BlobBaseFeeScalar": "0xa118b",
      "l1Fee": "0x3b0",
      "l1GasPrice": "0x1c",
      "l1GasUsed": "0x2093"
    },
    {
      "status": "0x1",
      "cumulativeGasUsed": "0x96d1ea",
      "logs": [],
      "logsBloom": "0x00000000000000000000000000000000000000000000000000000000000000000000000000000000000000000000000000000000000000000000000000000000000000000000000000000000000000000000000000000000000000000000000000000000000000000000000000000000000000000000000000000000000000000000000000000000000000000000000000000000000000000000000000000000000000000000000000000000000000000000000000000000000000000000000000000000000000000000000000000000000000000000000000000000000000000000000000000000000000000000000000000000000000000000000000000000",
      "type": "0x2",
      "transactionHash": "0xce514dedccede4bf4c13a5806ce8af5fa4b1a18df48eac50baead4fb47aa6752",
      "transactionIndex": "0x1c",
      "blockHash": "0xec9eaa1ec38a2302c0a4e23259979624f3ec83c484cba152049d37c5dde28a65",
      "blockNumber": "0x258131b",
      "gasUsed": "0x256de",
      "effectiveGasPrice": "0x5b8d80",
      "blobGasUsed": "0x5881",
      "from": "0xca9cdd6714033a4d08e4be479c1077e5b35f3a4b",
      "to": "0x23433c04d1ec546e365d966eaed054696060c403",
      "contractAddress": null,
      "daFootprintGasScalar": "0x8b",
      "l1BaseFeeScalar": "0x44d",
      "l1BlobBaseFee": "0x2",
      "l1BlobBaseFeeScalar": "0xa118b",
      "l1Fee": "0x127",
      "l1GasPrice": "0x1c",
      "l1GasUsed": "0xa33"
    }
  ],
  "libraries": [],
  "pending": [],
  "returns": {},
  "timestamp": 1774421279383,
  "chain": 84532,
  "commit": "50138f67c"
}