{
  "transactions": [
    {
      "hash": "0x169243a970c1d930acdeb6befcac95ef8fb0bbf83e748b20542d97f1152fe775",
      "transactionType": "CREATE",
      "contractName": "TreasuryFacet",
      "contractAddress": "0xc30df4e8770a3473e70690143294bd3534c0c4ed",
      "function": null,
      "arguments": null,
      "transaction": {
        "from": "0xca9cdd6714033a4d08e4be479c1077e5b35f3a4b",
        "gas": "0x3d8e4",
        "value": "0x0",
        "input": "0x6080806040523460155761028a908161001a8239f35b5f80fdfe6080806040526004361015610012575f80fd5b5f3560e01c908163313dab2014610196575063c49bfdca14610032575f80fd5b34610142576040366003190112610142576004356001600160a01b03811690819003610142577fc8fcad8db84d3cc18b4c41d551ea0ee66dd599cde068d998e57d5e09332c131f546001600160a01b03163303610159576040519063a9059cbb60e01b8252600482015260243560248201526020816044815f73e15a1c28c4185f9d98c1d2e17c2e8497bfefa23c5af190811561014e575f9161010f575b50156100d857005b60405162461bcd60e51b815260206004820152600f60248201526e151c985b9cd9995c8819985a5b1959608a1b6044820152606490fd5b90506020813d602011610146575b8161012a6020938361021e565b8101031261014257518015158103610142575f6100d0565b5f80fd5b3d915061011d565b6040513d5f823e3d90fd5b60405162461bcd60e51b81526020600482015260156024820152742634b12234b0b6b7b7321d102727aa2fa7aba722a960591b6044820152606490fd5b34610142575f366003190112610142576370a0823160e01b815230600482015260208160248173e15a1c28c4185f9d98c1d2e17c2e8497bfefa23c5afa801561014e575f906101eb575b602090604051908152f35b506020813d602011610216575b816102056020938361021e565b8101031261014257602090516101e0565b3d91506101f8565b90601f8019910116810190811067ffffffffffffffff82111761024057604052565b634e487b7160e01b5f52604160045260245ffdfea2646970667358221220123001144b30be3afa5699c5c0ca44cc95389fc23a6de5c1512e31b63ff6c4a364736f6c634300081e0033",
        "nonce": "0x105",
        "chainId": "0x14a34"
      },
      "additionalContracts": [],
      "isFixedGasLimit": false
    },
    {
      "hash": "0x5bb026e75a7fe5080f81e15a9ff57177dabb224e5a12d1d114ea42c2509079d4",
      "transactionType": "CALL",
      "contractName": null,
      "contractAddress": "0x23433c04d1ec546e365d966eaed054696060c403",
      "function": "diamondCut((address,uint8,bytes4[])[],address,bytes)",
      "arguments": [
        "[(0xC30Df4E8770A3473E70690143294bD3534C0C4ed, 0, [0xc49bfdca, 0x313dab20])]",
        "0x0000000000000000000000000000000000000000",
        "0x"
      ],
      "transaction": {
        "from": "0xca9cdd6714033a4d08e4be479c1077e5b35f3a4b",
        "to": "0x23433c04d1ec546e365d966eaed054696060c403",
        "gas": "0x3de88",
        "value": "0x0",
        "input": "0x1f931c1c00000000000000000000000000000000000000000000000000000000000000600000000000000000000000000000000000000000000000000000000000000000000000000000000000000000000000000000000000000000000000000000016000000000000000000000000000000000000000000000000000000000000000010000000000000000000000000000000000000000000000000000000000000020000000000000000000000000c30df4e8770a3473e70690143294bd3534c0c4ed000000000000000000000000000000000000000000000000000000000000000000000000000000000000000000000000000000000000000000000000000000600000000000000000000000000000000000000000000000000000000000000002c49bfdca00000000000000000000000000000000000000000000000000000000313dab20000000000000000000000000000000000000000000000000000000000000000000000000000000000000000000000000000000000000000000000000",
        "nonce": "0x106",
        "chainId": "0x14a34"
      },
      "additionalContracts": [],
      "isFixedGasLimit": false
    }
  ],
  "receipts": [
    {
      "status": "0x1",
      "cumulativeGasUsed": "0x1f3195",
      "logs": [],
      "logsBloom": "0x00000000000000000000000000000000000000000000000000000000000000000000000000000000000000000000000000000000000000000000000000000000000000000000000000000000000000000000000000000000000000000000000000000000000000000000000000000000000000000000000000000000000000000000000000000000000000000000000000000000000000000000000000000000000000000000000000000000000000000000000000000000000000000000000000000000000000000000000000000000000000000000000000000000000000000000000000000000000000000000000000000000000000000000000000000000",
      "type": "0x2",
      "transactionHash": "0x169243a970c1d930acdeb6befcac95ef8fb0bbf83e748b20542d97f1152fe775",
      "transactionIndex": "0x9",
      "blockHash": "0x0000000000000000000000000000000000000000000000000000000000000000",
      "blockNumber": "0x257f413",
      "gasUsed": "0x2f59c",
      "effectiveGasPrice": "0x5b8d80",
      "blobGasUsed": "0x118b7",
      "from": "0xca9cdd6714033a4d08e4be479c1077e5b35f3a4b",
      "to": null,
      "contractAddress": "0xc30df4e8770a3473e70690143294bd3534c0c4ed",
      "daFootprintGasScalar": "0x8b",
      "l1BaseFeeScalar": "0x44d",
      "l1BlobBaseFee": "0x3",
      "l1BlobBaseFeeScalar": "0xa118b",
      "l1Fee": "0xe0",
      "l1GasPrice": "0xf",
      "l1GasUsed": "0x2050"
    },
    {
      "status": "0x1",
      "cumulativeGasUsed": "0x21d6df",
      "logs": [],
      "logsBloom": "0x00000000000000000000000000000000000000000000000000000000000000000000000000000000000000000000000000000000000000000000000000000000000000000000000000000000000000000000000000000000000000000000000000000000000000000000000000000000000000000000000000000000000000000000000000000000000000000000000000000000000000000000000000000000000000000000000000000000000000000000000000000000000000000000000000000000000000000000000000000000000000000000000000000000000000000000000000000000000000000000000000000000000000000000000000000000",
      "type": "0x2",
      "transactionHash": "0x5bb026e75a7fe5080f81e15a9ff57177dabb224e5a12d1d114ea42c2509079d4",
      "transactionIndex": "0xa",
      "blockHash": "0x0000000000000000000000000000000000000000000000000000000000000000",
      "blockNumber": "0x257f413",
      "gasUsed": "0x2a54a",
      "effectiveGasPrice": "0x5b8d80",
      "blobGasUsed": "0x43df",
      "from": "0xca9cdd6714033a4d08e4be479c1077e5b35f3a4b",
      "to": "0x23433c04d1ec546e365d966eaed054696060c403",
      "contractAddress": null,
      "daFootprintGasScalar": "0x8b",
      "l1BaseFeeScalar": "0x44d",
      "l1BlobBaseFee": "0x3",
      "l1BlobBaseFeeScalar": "0xa118b",
      "l1Fee": "0xe0",
      "l1GasPrice": "0xf",
      "l1GasUsed": "0x7d8"
    }
  ],
  "libraries": [],
  "pending": [],
  "returns": {},
  "timestamp": 1774405382701,
  "chain": 84532,
  "commit": "50138f67c"
}