{
  "transactions": [
    {
      "hash": "0x027ef96bb841ec36aad0f073bc1cbacbafff1f2641b136a7641a1bd7c3fba754",
      "transactionType": "CREATE",
      "contractName": "RewardFacet",
      "contractAddress": "0x8b9d50872891345da95d3f0c02769354221df457",
      "function": null,
      "arguments": null,
      "transaction": {
        "from": "0xca9cdd6714033a4d08e4be479c1077e5b35f3a4b",
        "gas": "0x9c548",
        "value": "0x0",
        "input": "0x608080604052346015576107f1908161001a8239f35b5f80fdfe60806040526004361015610011575f80fd5b5f3560e01c8063223af381146105b75780632b5f51081461059957806330551b281461056c5780633e8d7a9e1461051657806369940d79146104cf578063702bfd5e1461049e5780638aee8127146103d25763a3dc529f14610071575f80fd5b346102845760403660031901126102845761008a61065b565b602435303314801561039d575b15610358576001600160a01b03821691821561031a5781156102d557806100c0610105926106bb565b6100cb8482546106f3565b90556001600160a01b03165f9081527fbe6e457ba1332c70c88a45cbf0d772df4605a973a377772addb08ba1b69e8cfd6020526040902090565b6101108282546106f3565b90557fbe6e457ba1332c70c88a45cbf0d772df4605a973a377772addb08ba1b69e8cfa546001600160a01b03168015610290576040516370a0823160e01b8152306004820152602081602481855afa80156102075783915f91610257575b50106102125760205f6040518281019063a9059cbb60e01b8252866024820152856044820152604481526101a3606482610714565b519082855af115610207575f513d6101fe5750803b155b6101ec575060207f6e1afd29522b0aaf986597bcc53f5fb4daae2af7cfd41d00c384ab1bdf912b2391604051908152a2005b635274afe760e01b5f5260045260245ffd5b600114156101ba565b6040513d5f823e3d90fd5b60405162461bcd60e51b815260206004820152601a60248201527f494e53554646494349454e545f4449414d4f4e445f46554e44530000000000006044820152606490fd5b9150506020813d602011610288575b8161027360209383610714565b81010312610284578290515f61016e565b5f80fd5b3d9150610266565b60405162461bcd60e51b815260206004820152601a60248201527f52657761726446616365743a20544f4b454e5f4e4f545f5345540000000000006044820152606490fd5b60405162461bcd60e51b815260206004820152601860248201527f52657761726446616365743a205a45524f5f414d4f554e5400000000000000006044820152606490fd5b60405162461bcd60e51b81526020600482015260166024820152752932bbb0b9322330b1b2ba1d102d22a927afaaa9a2a960511b6044820152606490fd5b60405162461bcd60e51b815260206004820152601b60248201527f52657761726446616365743a204e4f545f415554484f52495a454400000000006044820152606490fd5b50335f527fbe6e457ba1332c70c88a45cbf0d772df4605a973a377772addb08ba1b69e8d0c60205260ff60405f205416610097565b34610284576020366003190112610284576103eb61065b565b6103f361074a565b6001600160a01b03168015610459577fbe6e457ba1332c70c88a45cbf0d772df4605a973a377772addb08ba1b69e8cfa80546001600160a01b031916821790557f5ba6b30cd4b2f9e9e67f4feb9b9df10d5da3b057598e6901b217b7d590345e305f80a2005b60405162461bcd60e51b815260206004820152601960248201527f52657761726446616365743a205a45524f5f41444452455353000000000000006044820152606490fd5b34610284576020366003190112610284576004356005811015610284576104c6602091610671565b54604051908152f35b34610284575f366003190112610284577fbe6e457ba1332c70c88a45cbf0d772df4605a973a377772addb08ba1b69e8cfa546040516001600160a01b039091168152602090f35b346102845760203660031901126102845760206104c661053461065b565b6001600160a01b03165f9081527fbe6e457ba1332c70c88a45cbf0d772df4605a973a377772addb08ba1b69e8cfd6020526040902090565b34610284576020366003190112610284575f61059661058961065b565b61059161074a565b6106bb565b55005b346102845760203660031901126102845760206104c661059161065b565b34610284576040366003190112610284576004356005811015610284576024356105df61074a565b801561061d576020817f4797d8fc68ff2d9f1cfa7737e9e543515c0c98f44bbfa52ad467025f3bed93669261061385610671565b55604051908152a2005b60405162461bcd60e51b815260206004820152601660248201527552657761726446616365743a205a45524f5f5241544560501b6044820152606490fd5b600435906001600160a01b038216820361028457565b60058110156106a7575f527fbe6e457ba1332c70c88a45cbf0d772df4605a973a377772addb08ba1b69e8cfb60205260405f2090565b634e487b7160e01b5f52602160045260245ffd5b6001600160a01b03165f9081527fbe6e457ba1332c70c88a45cbf0d772df4605a973a377772addb08ba1b69e8cfc6020526040902090565b9190820180921161070057565b634e487b7160e01b5f52601160045260245ffd5b90601f8019910116810190811067ffffffffffffffff82111761073657604052565b634e487b7160e01b5f52604160045260245ffd5b7fbe6e457ba1332c70c88a45cbf0d772df4605a973a377772addb08ba1b69e8ceb546001600160a01b0316330361077d57565b60405162461bcd60e51b81526020600482015260166024820152752932bbb0b9322330b1b2ba1d102727aa2fa7aba722a960511b6044820152606490fdfea264697066735822122082012db92782b4a9c78b1dcdfe139dee3b404c8060b718fd2beb181867e0477464736f6c634300081e0033",
        "nonce": "0xfa",
        "chainId": "0x14a34"
      },
      "additionalContracts": [],
      "isFixedGasLimit": false
    },
    {
      "hash": "0x9ab28470f8a0bbe8b3d0c38f4fd9ba4b41c348672b09cc1c2db43eac9c61ebf9",
      "transactionType": "CALL",
      "contractName": null,
      "contractAddress": "0x23433c04d1ec546e365d966eaed054696060c403",
      "function": "diamondCut((address,uint8,bytes4[])[],address,bytes)",
      "arguments": [
        "[(0x8B9D50872891345DA95d3F0c02769354221DF457, 1, [0x8aee8127, 0x223af381, 0xa3dc529f, 0x69940d79, 0x702bfd5e, 0x2b5f5108, 0x3e8d7a9e]), (0x8B9D50872891345DA95d3F0c02769354221DF457, 0, [0x30551b28])]",
        "0x0000000000000000000000000000000000000000",
        "0x"
      ],
      "transaction": {
        "from": "0xca9cdd6714033a4d08e4be479c1077e5b35f3a4b",
        "to": "0x23433c04d1ec546e365d966eaed054696060c403",
        "gas": "0x487b7",
        "value": "0x0",
        "input": "0x1f931c1c0000000000000000000000000000000000000000000000000000000000000060000000000000000000000000000000000000000000000000000000000000000000000000000000000000000000000000000000000000000000000000000002c00000000000000000000000000000000000000000000000000000000000000002000000000000000000000000000000000000000000000000000000000000004000000000000000000000000000000000000000000000000000000000000001a00000000000000000000000008b9d50872891345da95d3f0c02769354221df4570000000000000000000000000000000000000000000000000000000000000001000000000000000000000000000000000000000000000000000000000000006000000000000000000000000000000000000000000000000000000000000000078aee812700000000000000000000000000000000000000000000000000000000223af38100000000000000000000000000000000000000000000000000000000a3dc529f0000000000000000000000000000000000000000000000000000000069940d7900000000000000000000000000000000000000000000000000000000702bfd5e000000000000000000000000000000000000000000000000000000002b5f5108000000000000000000000000000000000000000000000000000000003e8d7a9e000000000000000000000000000000000000000000000000000000000000000000000000000000008b9d50872891345da95d3f0c02769354221df45700000000000000000000000000000000000000000000000000000000000000000000000000000000000000000000000000000000000000000000000000000060000000000000000000000000000000000000000000000000000000000000000130551b28000000000000000000000000000000000000000000000000000000000000000000000000000000000000000000000000000000000000000000000000",
        "nonce": "0xfb",
        "chainId": "0x14a34"
      },
      "additionalContracts": [],
      "isFixedGasLimit": false
    }
  ],
  "receipts": [
    {
      "status": "0x1",
      "cumulativeGasUsed": "0x4b2a1f",
      "logs": [],
      "logsBloom": "0x00000000000000000000000000000000000000000000000000000000000000000000000000000000000000000000000000000000000000000000000000000000000000000000000000000000000000000000000000000000000000000000000000000000000000000000000000000000000000000000000000000000000000000000000000000000000000000000000000000000000000000000000000000000000000000000000000000000000000000000000000000000000000000000000000000000000000000000000000000000000000000000000000000000000000000000000000000000000000000000000000000000000000000000000000000000",
      "type": "0x2",
      "transactionHash": "0x027ef96bb841ec36aad0f073bc1cbacbafff1f2641b136a7641a1bd7c3fba754",
      "transactionIndex": "0x14",
      "blockHash": "0x0000000000000000000000000000000000000000000000000000000000000000",
      "blockNumber": "0x2574e1d",
      "gasUsed": "0x78410",
      "effectiveGasPrice": "0x5b8d80",
      "blobGasUsed": "0x25c53",
      "from": "0xca9cdd6714033a4d08e4be479c1077e5b35f3a4b",
      "to": null,
      "contractAddress": "0x8b9d50872891345da95d3f0c02769354221df457",
      "daFootprintGasScalar": "0x8b",
      "l1BaseFeeScalar": "0x44d",
      "l1BlobBaseFee": "0x1c31",
      "l1BlobBaseFeeScalar": "0xa118b",
      "l1Fee": "0x7444d",
      "l1GasPrice": "0xd",
      "l1GasUsed": "0x4597"
    },
    {
      "status": "0x1",
      "cumulativeGasUsed": "0x4e71bd",
      "logs": [],
      "logsBloom": "0x00000000000000000000000000000000000000000000000000000000000000000000000000000000000000000000000000000000000000000000000000000000000000000000000000000000000000000000000000000000000000000000000000000000000000000000000000000000000000000000000000000000000000000000000000000000000000000000000000000000000000000000000000000000000000000000000000000000000000000000000000000000000000000000000000000000000000000000000000000000000000000000000000000000000000000000000000000000000000000000000000000000000000000000000000000000",
      "type": "0x2",
      "transactionHash": "0x9ab28470f8a0bbe8b3d0c38f4fd9ba4b41c348672b09cc1c2db43eac9c61ebf9",
      "transactionIndex": "0x15",
      "blockHash": "0x0000000000000000000000000000000000000000000000000000000000000000",
      "blockNumber": "0x2574e1d",
      "gasUsed": "0x3479e",
      "effectiveGasPrice": "0x5b8d80",
      "blobGasUsed": "0x6ec4",
      "from": "0xca9cdd6714033a4d08e4be479c1077e5b35f3a4b",
      "to": "0x23433c04d1ec546e365d966eaed054696060c403",
      "contractAddress": null,
      "daFootprintGasScalar": "0x8b",
      "l1BaseFeeScalar": "0x44d",
      "l1BlobBaseFee": "0x1c31",
      "l1BlobBaseFeeScalar": "0xa118b",
      "l1Fee": "0x7444d",
      "l1GasPrice": "0xd",
      "l1GasUsed": "0xcc2"
    }
  ],
  "libraries": [],
  "pending": [],
  "returns": {},
  "timestamp": 1774320409578,
  "chain": 84532,
  "commit": "50138f67c"
}