{
  "transactions": [
    {
      "hash": "0xec60e1c927a6d6c0f906dd7eb33fa1540952a6018680d2dfa8ba7792ac2f24bb",
      "transactionType": "CREATE",
      "contractName": "RewardFacet",
      "contractAddress": "0x6637cbf58c0fb63acdbb992312b1cb67ac4d89c1",
      "function": null,
      "arguments": null,
      "transaction": {
        "from": "0xca9cdd6714033a4d08e4be479c1077e5b35f3a4b",
        "gas": "0x9fc61",
        "value": "0x0",
        "input": "0x60808060405234601557610823908161001a8239f35b5f80fdfe60806040526004361015610011575f80fd5b5f3560e01c8063223af381146106225780632b5f51081461058457806330551b281461052b5780633e8d7a9e146104d557806369940d79146104a1578063702bfd5e146104705780638aee8127146103b75763a3dc529f14610071575f80fd5b346102555760403660031901126102555761008a6106c6565b6024353033148015610382575b1561033d576001600160a01b0382169182156102ff5781156102ba576001600160a01b03165f9081527fbe6e457ba1332c70c88a45cbf0d772df4605a973a377772addb08ba1b69e8cfd602052604090208054908282018092116102a657555f5160206107ce5f395f51905f52546001600160a01b03168015610261576040516370a0823160e01b8152306004820152602081602481855afa80156101d85783915f91610228575b50106101e35760205f6040518281019063a9059cbb60e01b825286602482015285604482015260448152610174606482610726565b519082855af1156101d8575f513d6101cf5750803b155b6101bd575060207f6e1afd29522b0aaf986597bcc53f5fb4daae2af7cfd41d00c384ab1bdf912b2391604051908152a2005b635274afe760e01b5f5260045260245ffd5b6001141561018b565b6040513d5f823e3d90fd5b60405162461bcd60e51b815260206004820152601a60248201527f494e53554646494349454e545f4449414d4f4e445f46554e44530000000000006044820152606490fd5b9150506020813d602011610259575b8161024460209383610726565b81010312610255578290515f61013f565b5f80fd5b3d9150610237565b60405162461bcd60e51b815260206004820152601a60248201527f52657761726446616365743a20544f4b454e5f4e4f545f5345540000000000006044820152606490fd5b634e487b7160e01b5f52601160045260245ffd5b60405162461bcd60e51b815260206004820152601860248201527f52657761726446616365743a205a45524f5f414d4f554e5400000000000000006044820152606490fd5b60405162461bcd60e51b81526020600482015260166024820152752932bbb0b9322330b1b2ba1d102d22a927afaaa9a2a960511b6044820152606490fd5b60405162461bcd60e51b815260206004820152601b60248201527f52657761726446616365743a204e4f545f415554484f52495a454400000000006044820152606490fd5b50335f527fbe6e457ba1332c70c88a45cbf0d772df4605a973a377772addb08ba1b69e8d0c60205260ff60405f205416610097565b34610255576020366003190112610255576103d06106c6565b6103d861075c565b6001600160a01b0316801561042b575f5160206107ce5f395f51905f5280546001600160a01b031916821790557f5ba6b30cd4b2f9e9e67f4feb9b9df10d5da3b057598e6901b217b7d590345e305f80a2005b60405162461bcd60e51b815260206004820152601960248201527f52657761726446616365743a205a45524f5f41444452455353000000000000006044820152606490fd5b34610255576020366003190112610255576004356005811015610255576104986020916106dc565b54604051908152f35b34610255575f366003190112610255575f5160206107ce5f395f51905f52546040516001600160a01b039091168152602090f35b346102555760203660031901126102555760206104986104f36106c6565b6001600160a01b03165f9081527fbe6e457ba1332c70c88a45cbf0d772df4605a973a377772addb08ba1b69e8cfd6020526040902090565b34610255576020366003190112610255576105446106c6565b61054c61075c565b6001600160a01b03165f9081527fbe6e457ba1332c70c88a45cbf0d772df4605a973a377772addb08ba1b69e8cfc6020526040812055005b346102555760203660031901126102555761059d6106c6565b5f5160206107ce5f395f51905f52546040516370a0823160e01b81526001600160a01b0392831660048201529160209183916024918391165afa80156101d8575f906105ef575b602090604051908152f35b506020813d60201161061a575b8161060960209383610726565b8101031261025557602090516105e4565b3d91506105fc565b346102555760403660031901126102555760043560058110156102555760243561064a61075c565b8015610688576020817f4797d8fc68ff2d9f1cfa7737e9e543515c0c98f44bbfa52ad467025f3bed93669261067e856106dc565b55604051908152a2005b60405162461bcd60e51b815260206004820152601660248201527552657761726446616365743a205a45524f5f5241544560501b6044820152606490fd5b600435906001600160a01b038216820361025557565b6005811015610712575f527fbe6e457ba1332c70c88a45cbf0d772df4605a973a377772addb08ba1b69e8cfb60205260405f2090565b634e487b7160e01b5f52602160045260245ffd5b90601f8019910116810190811067ffffffffffffffff82111761074857604052565b634e487b7160e01b5f52604160045260245ffd5b7fbe6e457ba1332c70c88a45cbf0d772df4605a973a377772addb08ba1b69e8ceb546001600160a01b0316330361078f57565b60405162461bcd60e51b81526020600482015260166024820152752932bbb0b9322330b1b2ba1d102727aa2fa7aba722a960511b6044820152606490fdfebe6e457ba1332c70c88a45cbf0d772df4605a973a377772addb08ba1b69e8cfaa264697066735822122058825f24e4248bff363b66eff880de7c96aaafdadd39af528d88a4c07bef5b5b64736f6c634300081e0033",
        "nonce": "0xfd",
        "chainId": "0x14a34"
      },
      "additionalContracts": [],
      "isFixedGasLimit": false
    },
    {
      "hash": "0x2820b323e914ebf118d8c21c60e402e0505a7c89dff708fadb4c095d120dc625",
      "transactionType": "CALL",
      "contractName": null,
      "contractAddress": "0x23433c04d1ec546e365d966eaed054696060c403",
      "function": "diamondCut((address,uint8,bytes4[])[],address,bytes)",
      "arguments": [
        "[(0x6637cBF58c0FB63ACDBb992312B1cB67ac4d89C1, 1, [0x8aee8127, 0x223af381, 0xa3dc529f, 0x69940d79, 0x702bfd5e, 0x2b5f5108, 0x3e8d7a9e, 0x30551b28])]",
        "0x0000000000000000000000000000000000000000",
        "0x"
      ],
      "transaction": {
        "from": "0xca9cdd6714033a4d08e4be479c1077e5b35f3a4b",
        "to": "0x23433c04d1ec546e365d966eaed054696060c403",
        "gas": "0x3d741",
        "value": "0x0",
        "input": "0x1f931c1c000000000000000000000000000000000000000000000000000000000000006000000000000000000000000000000000000000000000000000000000000000000000000000000000000000000000000000000000000000000000000000000220000000000000000000000000000000000000000000000000000000000000000100000000000000000000000000000000000000000000000000000000000000200000000000000000000000006637cbf58c0fb63acdbb992312b1cb67ac4d89c10000000000000000000000000000000000000000000000000000000000000001000000000000000000000000000000000000000000000000000000000000006000000000000000000000000000000000000000000000000000000000000000088aee812700000000000000000000000000000000000000000000000000000000223af38100000000000000000000000000000000000000000000000000000000a3dc529f0000000000000000000000000000000000000000000000000000000069940d7900000000000000000000000000000000000000000000000000000000702bfd5e000000000000000000000000000000000000000000000000000000002b5f5108000000000000000000000000000000000000000000000000000000003e8d7a9e0000000000000000000000000000000000000000000000000000000030551b28000000000000000000000000000000000000000000000000000000000000000000000000000000000000000000000000000000000000000000000000",
        "nonce": "0xfe",
        "chainId": "0x14a34"
      },
      "additionalContracts": [],
      "isFixedGasLimit": false
    }
  ],
  "receipts": [
    {
      "status": "0x1",
      "cumulativeGasUsed": "0xd0a53",
      "logs": [],
      "logsBloom": "0x00000000000000000000000000000000000000000000000000000000000000000000000000000000000000000000000000000000000000000000000000000000000000000000000000000000000000000000000000000000000000000000000000000000000000000000000000000000000000000000000000000000000000000000000000000000000000000000000000000000000000000000000000000000000000000000000000000000000000000000000000000000000000000000000000000000000000000000000000000000000000000000000000000000000000000000000000000000000000000000000000000000000000000000000000000000",
      "type": "0x2",
      "transactionHash": "0xec60e1c927a6d6c0f906dd7eb33fa1540952a6018680d2dfa8ba7792ac2f24bb",
      "transactionIndex": "0x7",
      "blockHash": "0x0000000000000000000000000000000000000000000000000000000000000000",
      "blockNumber": "0x2574fcc",
      "gasUsed": "0x7ae72",
      "effectiveGasPrice": "0x5b8d80",
      "blobGasUsed": "0x2791a",
      "from": "0xca9cdd6714033a4d08e4be479c1077e5b35f3a4b",
      "to": null,
      "contractAddress": "0x6637cbf58c0fb63acdbb992312b1cb67ac4d89c1",
      "daFootprintGasScalar": "0x8b",
      "l1BaseFeeScalar": "0x44d",
      "l1BlobBaseFee": "0x1be0",
      "l1BlobBaseFeeScalar": "0xa118b",
      "l1Fee": "0x72f6e",
      "l1GasPrice": "0xe",
      "l1GasUsed": "0x48ef"
    },
    {
      "status": "0x1",
      "cumulativeGasUsed": "0xfd230",
      "logs": [],
      "logsBloom": "0x00000000000000000000000000000000000000000000000000000000000000000000000000000000000000000000000000000000000000000000000000000000000000000000000000000000000000000000000000000000000000000000000000000000000000000000000000000000000000000000000000000000000000000000000000000000000000000000000000000000000000000000000000000000000000000000000000000000000000000000000000000000000000000000000000000000000000000000000000000000000000000000000000000000000000000000000000000000000000000000000000000000000000000000000000000000",
      "type": "0x2",
      "transactionHash": "0x2820b323e914ebf118d8c21c60e402e0505a7c89dff708fadb4c095d120dc625",
      "transactionIndex": "0x8",
      "blockHash": "0x0000000000000000000000000000000000000000000000000000000000000000",
      "blockNumber": "0x2574fcc",
      "gasUsed": "0x2c7dd",
      "effectiveGasPrice": "0x5b8d80",
      "blobGasUsed": "0x590c",
      "from": "0xca9cdd6714033a4d08e4be479c1077e5b35f3a4b",
      "to": "0x23433c04d1ec546e365d966eaed054696060c403",
      "contractAddress": null,
      "daFootprintGasScalar": "0x8b",
      "l1BaseFeeScalar": "0x44d",
      "l1BlobBaseFee": "0x1be0",
      "l1BlobBaseFeeScalar": "0xa118b",
      "l1Fee": "0x72f6e",
      "l1GasPrice": "0xe",
      "l1GasUsed": "0xa4d"
    }
  ],
  "libraries": [],
  "pending": [],
  "returns": {},
  "timestamp": 1774321270894,
  "chain": 84532,
  "commit": "50138f67c"
}