{
  "transactions": [
    {
      "hash": "0x10d84d9b09a2b13bdea491ad8b0dfb62fed570c7e5ec5a3be94d4276d627c641",
      "transactionType": "CREATE",
      "contractName": "RewardFacet",
      "contractAddress": "0x849f393e61841f77e96d24052c6ca786c2852474",
      "function": null,
      "arguments": null,
      "transaction": {
        "from": "0xca9cdd6714033a4d08e4be479c1077e5b35f3a4b",
        "gas": "0xae869",
        "value": "0x0",
        "input": "0x608080604052346015576108fa908161001a8239f35b5f80fdfe60806040526004361015610011575f80fd5b5f3560e01c8063223af381146106f95780632b5f51081461065b57806330551b28146106025780633e8d7a9e146105ac57806369940d7914610578578063702bfd5e146105475780638aee81271461048e5763a3dc529f14610071575f80fd5b346102485760403660031901126102485761008a61079d565b6024353033148015610459575b15610414576001600160a01b0382169182156103d65781156103915768056bc75e2d63100000821161034d576001600160a01b03165f9081527fbe6e457ba1332c70c88a45cbf0d772df4605a973a377772addb08ba1b69e8cfe6020526040902080549082820180921161033957555f5160206108a55f395f51905f52546001600160a01b031680156102f4576040516370a0823160e01b8152306004820152602081602481855afa80156102545783915f916102bf575b501061027a5760205f6040518281019063a9059cbb60e01b8252866024820152856044820152604481526101846064826107fd565b519082855af115610254575f513d6102715750803b155b61025f576020602491604051928380926370a0823160e01b82528760048301525afa908115610254575f916101fe575b507f88d0322178078e6d39a0e6e081d01db3b0683f645ab2b062942a7382ab571d2b9160409182519182526020820152a2005b90506020813d60201161024c575b81610219602093836107fd565b8101031261024857517f88d0322178078e6d39a0e6e081d01db3b0683f645ab2b062942a7382ab571d2b6101cb565b5f80fd5b3d915061020c565b6040513d5f823e3d90fd5b635274afe760e01b5f5260045260245ffd5b6001141561019b565b60405162461bcd60e51b815260206004820152601a60248201527f494e53554646494349454e545f4449414d4f4e445f46554e44530000000000006044820152606490fd5b9150506020813d6020116102ec575b816102db602093836107fd565b81010312610248578290515f61014f565b3d91506102ce565b60405162461bcd60e51b815260206004820152601a60248201527f52657761726446616365743a20544f4b454e5f4e4f545f5345540000000000006044820152606490fd5b634e487b7160e01b5f52601160045260245ffd5b606460405162461bcd60e51b815260206004820152602060248201527f52657761726446616365743a204d41585f5245574152445f45584345454445446044820152fd5b60405162461bcd60e51b815260206004820152601860248201527f52657761726446616365743a205a45524f5f414d4f554e5400000000000000006044820152606490fd5b60405162461bcd60e51b81526020600482015260166024820152752932bbb0b9322330b1b2ba1d102d22a927afaaa9a2a960511b6044820152606490fd5b60405162461bcd60e51b815260206004820152601b60248201527f52657761726446616365743a204e4f545f415554484f52495a454400000000006044820152606490fd5b50335f527fbe6e457ba1332c70c88a45cbf0d772df4605a973a377772addb08ba1b69e8d0d60205260ff60405f205416610097565b34610248576020366003190112610248576104a761079d565b6104af610833565b6001600160a01b03168015610502575f5160206108a55f395f51905f5280546001600160a01b031916821790557f5ba6b30cd4b2f9e9e67f4feb9b9df10d5da3b057598e6901b217b7d590345e305f80a2005b60405162461bcd60e51b815260206004820152601960248201527f52657761726446616365743a205a45524f5f41444452455353000000000000006044820152606490fd5b346102485760203660031901126102485760043560058110156102485761056f6020916107b3565b54604051908152f35b34610248575f366003190112610248575f5160206108a55f395f51905f52546040516001600160a01b039091168152602090f35b3461024857602036600319011261024857602061056f6105ca61079d565b6001600160a01b03165f9081527fbe6e457ba1332c70c88a45cbf0d772df4605a973a377772addb08ba1b69e8cfe6020526040902090565b346102485760203660031901126102485761061b61079d565b610623610833565b6001600160a01b03165f9081527fbe6e457ba1332c70c88a45cbf0d772df4605a973a377772addb08ba1b69e8cfd6020526040812055005b346102485760203660031901126102485761067461079d565b5f5160206108a55f395f51905f52546040516370a0823160e01b81526001600160a01b0392831660048201529160209183916024918391165afa8015610254575f906106c6575b602090604051908152f35b506020813d6020116106f1575b816106e0602093836107fd565b8101031261024857602090516106bb565b3d91506106d3565b3461024857604036600319011261024857600435600581101561024857602435610721610833565b801561075f576020817f4797d8fc68ff2d9f1cfa7737e9e543515c0c98f44bbfa52ad467025f3bed936692610755856107b3565b55604051908152a2005b60405162461bcd60e51b815260206004820152601660248201527552657761726446616365743a205a45524f5f5241544560501b6044820152606490fd5b600435906001600160a01b038216820361024857565b60058110156107e9575f527fbe6e457ba1332c70c88a45cbf0d772df4605a973a377772addb08ba1b69e8cfc60205260405f2090565b634e487b7160e01b5f52602160045260245ffd5b90601f8019910116810190811067ffffffffffffffff82111761081f57604052565b634e487b7160e01b5f52604160045260245ffd5b7fbe6e457ba1332c70c88a45cbf0d772df4605a973a377772addb08ba1b69e8ceb546001600160a01b0316330361086657565b60405162461bcd60e51b81526020600482015260166024820152752932bbb0b9322330b1b2ba1d102727aa2fa7aba722a960511b6044820152606490fdfebe6e457ba1332c70c88a45cbf0d772df4605a973a377772addb08ba1b69e8cfba2646970667358221220f291471ed946b6a2eeebd273335f07261657a017deeb2304976977294a21120e64736f6c634300081e0033",
        "nonce": "0x10a",
        "chainId": "0x14a34"
      },
      "additionalContracts": [],
      "isFixedGasLimit": false
    },
    {
      "hash": "0x219e3fc73c545163eb47c450f11a104222bb7ced222e7e134f6c6670df3c664a",
      "transactionType": "CALL",
      "contractName": null,
      "contractAddress": "0x23433c04d1ec546e365d966eaed054696060c403",
      "function": "diamondCut((address,uint8,bytes4[])[],address,bytes)",
      "arguments": [
        "[(0x849f393E61841f77e96D24052c6cA786c2852474, 1, [0x8aee8127, 0x223af381, 0xa3dc529f, 0x69940d79, 0x702bfd5e, 0x2b5f5108, 0x3e8d7a9e, 0x30551b28])]",
        "0x0000000000000000000000000000000000000000",
        "0x"
      ],
      "transaction": {
        "from": "0xca9cdd6714033a4d08e4be479c1077e5b35f3a4b",
        "to": "0x23433c04d1ec546e365d966eaed054696060c403",
        "gas": "0x44f6a",
        "value": "0x0",
        "input": "0x1f931c1c00000000000000000000000000000000000000000000000000000000000000600000000000000000000000000000000000000000000000000000000000000000000000000000000000000000000000000000000000000000000000000000022000000000000000000000000000000000000000000000000000000000000000010000000000000000000000000000000000000000000000000000000000000020000000000000000000000000849f393e61841f77e96d24052c6ca786c28524740000000000000000000000000000000000000000000000000000000000000001000000000000000000000000000000000000000000000000000000000000006000000000000000000000000000000000000000000000000000000000000000088aee812700000000000000000000000000000000000000000000000000000000223af38100000000000000000000000000000000000000000000000000000000a3dc529f0000000000000000000000000000000000000000000000000000000069940d7900000000000000000000000000000000000000000000000000000000702bfd5e000000000000000000000000000000000000000000000000000000002b5f5108000000000000000000000000000000000000000000000000000000003e8d7a9e0000000000000000000000000000000000000000000000000000000030551b28000000000000000000000000000000000000000000000000000000000000000000000000000000000000000000000000000000000000000000000000",
        "nonce": "0x10b",
        "chainId": "0x14a34"
      },
      "additionalContracts": [],
      "isFixedGasLimit": false
    }
  ],
  "receipts": [
    {
      "status": "0x1",
      "cumulativeGasUsed": "0xb2d163",
      "logs": [],
      "logsBloom": "0x00000000000000000000000000000000000000000000000000000000000000000000000000000000000000000000000000000000000000000000000000000000000000000000000000000000000000000000000000000000000000000000000000000000000000000000000000000000000000000000000000000000000000000000000000000000000000000000000000000000000000000000000000000000000000000000000000000000000000000000000000000000000000000000000000000000000000000000000000000000000000000000000000000000000000000000000000000000000000000000000000000000000000000000000000000000",
      "type": "0x2",
      "transactionHash": "0x10d84d9b09a2b13bdea491ad8b0dfb62fed570c7e5ec5a3be94d4276d627c641",
      "transactionIndex": "0x21",
      "blockHash": "0x0000000000000000000000000000000000000000000000000000000000000000",
      "blockNumber": "0x2581145",
      "gasUsed": "0x86402",
      "effectiveGasPrice": "0x5b8d80",
      "blobGasUsed": "0x2a8e2",
      "from": "0xca9cdd6714033a4d08e4be479c1077e5b35f3a4b",
      "to": null,
      "contractAddress": "0x849f393e61841f77e96d24052c6ca786c2852474",
      "daFootprintGasScalar": "0x8b",
      "l1BaseFeeScalar": "0x44d",
      "l1BlobBaseFee": "0x2",
      "l1BlobBaseFeeScalar": "0xa118b",
      "l1Fee": "0xaa",
      "l1GasPrice": "0x16",
      "l1GasUsed": "0x4e6d"
    },
    {
      "status": "0x1",
      "cumulativeGasUsed": "0xb5c3dc",
      "logs": [],
      "logsBloom": "0x00000000000000000000000000000000000000000000000000000000000000000000000000000000000000000000000000000000000000000000000000000000000000000000000000000000000000000000000000000000000000000000000000000000000000000000000000000000000000000000000000000000000000000000000000000000000000000000000000000000000000000000000000000000000000000000000000000000000000000000000000000000000000000000000000000000000000000000000000000000000000000000000000000000000000000000000000000000000000000000000000000000000000000000000000000000",
      "type": "0x2",
      "transactionHash": "0x219e3fc73c545163eb47c450f11a104222bb7ced222e7e134f6c6670df3c664a",
      "transactionIndex": "0x22",
      "blockHash": "0x0000000000000000000000000000000000000000000000000000000000000000",
      "blockNumber": "0x2581145",
      "gasUsed": "0x2f279",
      "effectiveGasPrice": "0x5b8d80",
      "blobGasUsed": "0x5997",
      "from": "0xca9cdd6714033a4d08e4be479c1077e5b35f3a4b",
      "to": "0x23433c04d1ec546e365d966eaed054696060c403",
      "contractAddress": null,
      "daFootprintGasScalar": "0x8b",
      "l1BaseFeeScalar": "0x44d",
      "l1BlobBaseFee": "0x2",
      "l1BlobBaseFeeScalar": "0xa118b",
      "l1Fee": "0xaa",
      "l1GasPrice": "0x16",
      "l1GasUsed": "0xa5b"
    }
  ],
  "libraries": [],
  "pending": [],
  "returns": {},
  "timestamp": 1774420331526,
  "chain": 84532,
  "commit": "50138f67c"
}