{
  "transactions": [
    {
      "hash": "0x3550986af5fee50e4f8d12464162a3f351aa3336afde486b07839873640afdbd",
      "transactionType": "CREATE",
      "contractName": "RewardFacet",
      "contractAddress": "0x1e16bd6896d068d2e7491773f92db251c3911353",
      "function": null,
      "arguments": null,
      "transaction": {
        "from": "0xca9cdd6714033a4d08e4be479c1077e5b35f3a4b",
        "gas": "0xae750",
        "value": "0x0",
        "input": "0x608080604052346015576108f9908161001a8239f35b5f80fdfe60806040526004361015610011575f80fd5b5f3560e01c8063223af381146106f85780632b5f51081461065a57806330551b28146106015780633e8d7a9e146105ab57806369940d7914610577578063702bfd5e146105465780638aee81271461048d5763a3dc529f14610071575f80fd5b346102475760403660031901126102475761008a61079c565b6024353033148015610458575b15610413576001600160a01b0382169182156103d557811561039057678ac7230489e80000821161034c576001600160a01b03165f9081527fbe6e457ba1332c70c88a45cbf0d772df4605a973a377772addb08ba1b69e8cfd6020526040902080549082820180921161033857555f5160206108a45f395f51905f52546001600160a01b031680156102f3576040516370a0823160e01b8152306004820152602081602481855afa80156102535783915f916102be575b50106102795760205f6040518281019063a9059cbb60e01b8252866024820152856044820152604481526101836064826107fc565b519082855af115610253575f513d6102705750803b155b61025e576020602491604051928380926370a0823160e01b82528760048301525afa908115610253575f916101fd575b507f88d0322178078e6d39a0e6e081d01db3b0683f645ab2b062942a7382ab571d2b9160409182519182526020820152a2005b90506020813d60201161024b575b81610218602093836107fc565b8101031261024757517f88d0322178078e6d39a0e6e081d01db3b0683f645ab2b062942a7382ab571d2b6101ca565b5f80fd5b3d915061020b565b6040513d5f823e3d90fd5b635274afe760e01b5f5260045260245ffd5b6001141561019a565b60405162461bcd60e51b815260206004820152601a60248201527f494e53554646494349454e545f4449414d4f4e445f46554e44530000000000006044820152606490fd5b9150506020813d6020116102eb575b816102da602093836107fc565b81010312610247578290515f61014e565b3d91506102cd565b60405162461bcd60e51b815260206004820152601a60248201527f52657761726446616365743a20544f4b454e5f4e4f545f5345540000000000006044820152606490fd5b634e487b7160e01b5f52601160045260245ffd5b606460405162461bcd60e51b815260206004820152602060248201527f52657761726446616365743a204d41585f5245574152445f45584345454445446044820152fd5b60405162461bcd60e51b815260206004820152601860248201527f52657761726446616365743a205a45524f5f414d4f554e5400000000000000006044820152606490fd5b60405162461bcd60e51b81526020600482015260166024820152752932bbb0b9322330b1b2ba1d102d22a927afaaa9a2a960511b6044820152606490fd5b60405162461bcd60e51b815260206004820152601b60248201527f52657761726446616365743a204e4f545f415554484f52495a454400000000006044820152606490fd5b50335f527fbe6e457ba1332c70c88a45cbf0d772df4605a973a377772addb08ba1b69e8d0c60205260ff60405f205416610097565b34610247576020366003190112610247576104a661079c565b6104ae610832565b6001600160a01b03168015610501575f5160206108a45f395f51905f5280546001600160a01b031916821790557f5ba6b30cd4b2f9e9e67f4feb9b9df10d5da3b057598e6901b217b7d590345e305f80a2005b60405162461bcd60e51b815260206004820152601960248201527f52657761726446616365743a205a45524f5f41444452455353000000000000006044820152606490fd5b346102475760203660031901126102475760043560058110156102475761056e6020916107b2565b54604051908152f35b34610247575f366003190112610247575f5160206108a45f395f51905f52546040516001600160a01b039091168152602090f35b3461024757602036600319011261024757602061056e6105c961079c565b6001600160a01b03165f9081527fbe6e457ba1332c70c88a45cbf0d772df4605a973a377772addb08ba1b69e8cfd6020526040902090565b346102475760203660031901126102475761061a61079c565b610622610832565b6001600160a01b03165f9081527fbe6e457ba1332c70c88a45cbf0d772df4605a973a377772addb08ba1b69e8cfc6020526040812055005b346102475760203660031901126102475761067361079c565b5f5160206108a45f395f51905f52546040516370a0823160e01b81526001600160a01b0392831660048201529160209183916024918391165afa8015610253575f906106c5575b602090604051908152f35b506020813d6020116106f0575b816106df602093836107fc565b8101031261024757602090516106ba565b3d91506106d2565b3461024757604036600319011261024757600435600581101561024757602435610720610832565b801561075e576020817f4797d8fc68ff2d9f1cfa7737e9e543515c0c98f44bbfa52ad467025f3bed936692610754856107b2565b55604051908152a2005b60405162461bcd60e51b815260206004820152601660248201527552657761726446616365743a205a45524f5f5241544560501b6044820152606490fd5b600435906001600160a01b038216820361024757565b60058110156107e8575f527fbe6e457ba1332c70c88a45cbf0d772df4605a973a377772addb08ba1b69e8cfb60205260405f2090565b634e487b7160e01b5f52602160045260245ffd5b90601f8019910116810190811067ffffffffffffffff82111761081e57604052565b634e487b7160e01b5f52604160045260245ffd5b7fbe6e457ba1332c70c88a45cbf0d772df4605a973a377772addb08ba1b69e8ceb546001600160a01b0316330361086557565b60405162461bcd60e51b81526020600482015260166024820152752932bbb0b9322330b1b2ba1d102727aa2fa7aba722a960511b6044820152606490fdfebe6e457ba1332c70c88a45cbf0d772df4605a973a377772addb08ba1b69e8cfaa264697066735822122093f40a55fa343b3c43211caa16a733a38c06f38ca802673b7139e75e44e4782564736f6c634300081e0033",
        "nonce": "0x100",
        "chainId": "0x14a34"
      },
      "additionalContracts": [],
      "isFixedGasLimit": false
    },
    {
      "hash": "0x7d0711a72365772d430d039952f26b2046616dcd707a4e629374dde4cc336cee",
      "transactionType": "CALL",
      "contractName": null,
      "contractAddress": "0x23433c04d1ec546e365d966eaed054696060c403",
      "function": "diamondCut((address,uint8,bytes4[])[],address,bytes)",
      "arguments": [
        "[(0x1E16bD6896d068D2E7491773f92db251c3911353, 1, [0x8aee8127, 0x223af381, 0xa3dc529f, 0x69940d79, 0x702bfd5e, 0x2b5f5108, 0x3e8d7a9e, 0x30551b28])]",
        "0x0000000000000000000000000000000000000000",
        "0x"
      ],
      "transaction": {
        "from": "0xca9cdd6714033a4d08e4be479c1077e5b35f3a4b",
        "to": "0x23433c04d1ec546e365d966eaed054696060c403",
        "gas": "0x3d741",
        "value": "0x0",
        "input": "0x1f931c1c000000000000000000000000000000000000000000000000000000000000006000000000000000000000000000000000000000000000000000000000000000000000000000000000000000000000000000000000000000000000000000000220000000000000000000000000000000000000000000000000000000000000000100000000000000000000000000000000000000000000000000000000000000200000000000000000000000001e16bd6896d068d2e7491773f92db251c39113530000000000000000000000000000000000000000000000000000000000000001000000000000000000000000000000000000000000000000000000000000006000000000000000000000000000000000000000000000000000000000000000088aee812700000000000000000000000000000000000000000000000000000000223af38100000000000000000000000000000000000000000000000000000000a3dc529f0000000000000000000000000000000000000000000000000000000069940d7900000000000000000000000000000000000000000000000000000000702bfd5e000000000000000000000000000000000000000000000000000000002b5f5108000000000000000000000000000000000000000000000000000000003e8d7a9e0000000000000000000000000000000000000000000000000000000030551b28000000000000000000000000000000000000000000000000000000000000000000000000000000000000000000000000000000000000000000000000",
        "nonce": "0x101",
        "chainId": "0x14a34"
      },
      "additionalContracts": [],
      "isFixedGasLimit": false
    }
  ],
  "receipts": [
    {
      "status": "0x1",
      "cumulativeGasUsed": "0x392797",
      "logs": [],
      "logsBloom": "0x00000000000000000000000000000000000000000000000000000000000000000000000000000000000000000000000000000000000000000000000000000000000000000000000000000000000000000000000000000000000000000000000000000000000000000000000000000000000000000000000000000000000000000000000000000000000000000000000000000000000000000000000000000000000000000000000000000000000000000000000000000000000000000000000000000000000000000000000000000000000000000000000000000000000000000000000000000000000000000000000000000000000000000000000000000000",
      "type": "0x2",
      "transactionHash": "0x3550986af5fee50e4f8d12464162a3f351aa3336afde486b07839873640afdbd",
      "transactionIndex": "0xe",
      "blockHash": "0x0000000000000000000000000000000000000000000000000000000000000000",
      "blockNumber": "0x2575263",
      "gasUsed": "0x8632a",
      "effectiveGasPrice": "0x5b8d80",
      "blobGasUsed": "0x2a9f8",
      "from": "0xca9cdd6714033a4d08e4be479c1077e5b35f3a4b",
      "to": null,
      "contractAddress": "0x1e16bd6896d068d2e7491773f92db251c3911353",
      "daFootprintGasScalar": "0x8b",
      "l1BaseFeeScalar": "0x44d",
      "l1BlobBaseFee": "0x40896",
      "l1BlobBaseFeeScalar": "0xa118b",
      "l1Fee": "0x10a2760",
      "l1GasPrice": "0xd",
      "l1GasUsed": "0x4e87"
    },
    {
      "status": "0x1",
      "cumulativeGasUsed": "0x3bef74",
      "logs": [],
      "logsBloom": "0x00000000000000000000000000000000000000000000000000000000000000000000000000000000000000000000000000000000000000000000000000000000000000000000000000000000000000000000000000000000000000000000000000000000000000000000000000000000000000000000000000000000000000000000000000000000000000000000000000000000000000000000000000000000000000000000000000000000000000000000000000000000000000000000000000000000000000000000000000000000000000000000000000000000000000000000000000000000000000000000000000000000000000000000000000000000",
      "type": "0x2",
      "transactionHash": "0x7d0711a72365772d430d039952f26b2046616dcd707a4e629374dde4cc336cee",
      "transactionIndex": "0xf",
      "blockHash": "0x0000000000000000000000000000000000000000000000000000000000000000",
      "blockNumber": "0x2575263",
      "gasUsed": "0x2c7dd",
      "effectiveGasPrice": "0x5b8d80",
      "blobGasUsed": "0x5997",
      "from": "0xca9cdd6714033a4d08e4be479c1077e5b35f3a4b",
      "to": "0x23433c04d1ec546e365d966eaed054696060c403",
      "contractAddress": null,
      "daFootprintGasScalar": "0x8b",
      "l1BaseFeeScalar": "0x44d",
      "l1BlobBaseFee": "0x40896",
      "l1BlobBaseFeeScalar": "0xa118b",
      "l1Fee": "0x10a2760",
      "l1GasPrice": "0xd",
      "l1GasUsed": "0xa5b"
    }
  ],
  "libraries": [],
  "pending": [],
  "returns": {},
  "timestamp": 1774322597093,
  "chain": 84532,
  "commit": "50138f67c"
}